:100000000C94E0000C9408010C9408010C94DB0B98
:100010000C94DB0B0C94DB0B0C9408010C94080182
:100020000C9408010C9408010C9408010C9408012C
:100030000C9408010C9408010C9408010C9408011C
:100040000C9465010C9408010C94A90B0C94830B7F
:100050000C9408010C9408010C9408010C940801FC
:100060000C9408010C94080100407A10F35A00A087
:10007000724E18090010A5D4E80000E87648170071
:1000800000E40B54020000CA9A3B000000E1F505B1
:10009000000080969800000040420F000000A086FB
:1000A00001000000102700000000E803000000002D
:1000B0006400000000000A000000000001000000D1
:1000C00000002C76D888DC674F0823DFC1DFAE59EB
:1000D000E1B1B796E5E3E453C63AE651997696E87E
:1000E000E6C28426EB898C9B62ED407C6FFCEFBC02
:1000F0009C9F40F2BAA56FA5F490055A2AF75C932D
:100100006B6CF9676DC11BFCE0E40D47FEF520E662
:10011000B500D0ED902E0300943577050080841E45
:10012000080000204E0A000000C80C333333330FA0
:10013000986E12831141EF8D2114893BE65516CF3D
:10014000FEE6DB18D1844B381BF77C1D901DA4BB49
:10015000E424203284725E228100C9F124ECA1E5FE
:100160003D2700000000240027002A0000000008AE
:10017000000201000003040700000000000000006E
:1001800000000000230026002900000000002500D8
:1001900028002B00040404040404040402020202E4
:1001A000020203030303030301020408102040803A
:1001B0000102040810200102040810208E11B2125E
:1001C00011241FBECFEFD8E0DEBFCDBF24E0A6E2F2
:1001D000B3E001C01D92AC37B207E1F713E0A0E035
:1001E000B1E0E4E9F3E302C005900D92A632B10755
:1001F000D9F710E0CFEDD0E004C02197FE010E94B6
:10020000A117CE3DD107C9F70E94CB0D0C94BD19A3
:100210000C94000008950E948E190F931F93CF93A2
:10022000DF93EC0188819981009729F02A813B8135
:100230002617370788F48B016F5F7F4F0E94C8181D
:10024000009761F0998388831B830A832C813D8109
:10025000232B11F4FC01108281E001C080E0DF91CA
:10026000CF911F910F9108953FB7F894809130037B
:1002700090913103A0913203B091330326B5A89B2E
:1002800005C02F3F19F00196A11DB11D3FBFBA2F28
:10029000A92F982F8827820F911DA11DB11DBC0188
:1002A000CD0142E0660F771F881F991F4A95D1F74D
:1002B00008952FB7F89460912C0370912D038091CD
:1002C0002E0390912F032FBF08951F920F920FB608
:1002D0000F9211242F933F938F939F93AF93BF93CC
:1002E00080912C0390912D03A0912E03B0912F03A8
:1002F00030912B0323E0230F2D3720F40196A11D0D
:10030000B11D05C026E8230F0296A11DB11D209343
:100310002B0380932C0390932D03A0932E03B09373
:100320002F038091300390913103A0913203B0915B
:1003300033030196A11DB11D8093300390933103C7
:10034000A0933203B0933303BF91AF919F918F91EC
:100350003F912F910F900FBE0F901F901895EF9225
:10036000FF920F931F93CF93DF936115710511F4E3
:1003700080E01CC041155105C1F07B01EC018C816E
:100380009D818A01080F191FB801CE010E940D013D
:10039000882371F3288139818C819D81B701820F77
:1003A000931F0E949C191D830C8381E0DF91CF91E4
:1003B0001F910F91FF90EF9008950F931F93CF938C
:1003C000DF938C01EB01FC0180819181009739F072
:1003D0006881798161157105A1F40E943F188881B7
:1003E0009981F801918380838A819B8193838283A1
:1003F0008C819D8195838483198218821B821A8245
:100400000FC0F801428153812C813D81421753076F
:1004100020F30E949C198C819D81F801958384832F
:100420001D821C82DF91CF911F910F910895CF9370
:10043000DF93EC0188819981009711F00E943F18A9
:10044000198218821D821C821B821A82DF91CF9131
:100450000895CF93DF93EC016115710561F0FB0105
:1004600001900020E9F73197AF01461B570B0E941E
:10047000AF01811103C0CE010E941702CE01DF91AE
:10048000CF910895CF93DF93EC01FB014481558117
:10049000608171810E94AF01811103C0CE010E9471
:1004A0001702CE01DF91CF910895EF92FF920F9343
:1004B0001F93CF93DF93EC017B018A01BA010E9465
:1004C0000D01811104C0CE010E94170207C01D83D7
:1004D0000C83B701888199810E949C19CE01DF911C
:1004E000CF911F910F91FF90EF900895CF93DF93DD
:1004F000EC016115710559F0FB0101900020E9F74D
:100500003197AF01461B570B0E94550202C00E9453
:100510001702CE01DF91CF910895CF93DF93EC01C5
:10052000FB018617970761F0608171816115710584
:1005300029F0448155810E94550202C00E94170291
:10054000CE01DF91CF910895FC01808191810C94BF
:100550003F18FC01118210821382128215821482CC
:100560000C948D02FC01118210821382128215827A
:1005700014826115710551F0FB0101900020E9F72B
:100580003197AF01461B570B0C94550208958F927B
:100590009F92AF92BF92EF92FF920F931F93CF93D0
:1005A000DF93CDB7DEB7A1970FB6F894DEBF0FBECD
:1005B000CDBF7C01FA01CB0119A2223008F42AE058
:1005C0008E010F5D1F4F822E912CA12CB12CBF01EB
:1005D000A50194010E944C17F901CA0101501109AB
:1005E0006A3014F4605D01C0695CD8016C93232B00
:1005F000242B252B61F7B801C7010E946E0BA19631
:100600000FB6F894DEBF0FBECDBFDF91CF911F9123
:100610000F91FF90EF90BF90AF909F908F900895B3
:100620000F931F93CF93DF93EC010E946E0B8C010D
:100630006DEB71E0CE010E946E0B800F911FDF9178
:10064000CF911F910F9108950C946E0BDB011496BE
:100650004D915C9115976D917C91DC01ED91FC9130
:100660000280F381E02D09940F931F93CF93DF93C2
:10067000EC010E9426038C016DEB71E0CE010E941B
:100680006E0B800F911FDF91CF911F910F910895F5
:10069000CF92DF92EF92FF92CF93DF93B091DC0382
:1006A000882311F0AB2F01C0A0E08091DD0390E022
:1006B000880F991F80589E4FC090E203D090E303AB
:1006C000E090E403F090E50320E030E0FC01C59108
:1006D000D491E881EB23A90160E070E0EA130CC03B
:1006E0002F5F3F4F4C155D056E057F0578F33FEF9B
:1006F0002FEF8FEF9FEF03C0322F252FCB01632FFA
:10070000722FDF91CF91FF90EF90DF90CF900895FF
:1007100090E0FC01E459FE4F2491FC01E855FE4FA6
:100720003491FC01EC56FE4FE491EE2309F43CC0F9
:10073000222339F1233091F038F42130A9F022300E
:1007400001F584B58F7D12C0273091F02830A1F0DB
:100750002430B9F4809180008F7D03C080918000A7
:100760008F77809380000DC084B58F7784BD09C0DA
:100770008091B0008F7703C08091B0008F7D80930F
:10078000B000F0E0EE0FFF1FE657FE4FA591B491C9
:100790009FB7F894611104C08C913095382302C042
:1007A000EC913E2B3C939FBF08950F931F930E94A3
:1007B000590160930304709304048093050490939B
:1007C00006048BEF93E00E94020B97FF1FC00E946C
:1007D0005901009103041091040420910504309103
:1007E0000604DC01CB01801B910BA20BB30B009123
:1007F000FF0310910004209101043091020480173E
:100800009107A207B307E8F28FEF9FEF1F910F91B7
:1008100008958F929F92AF92BF92CF92DF92EF9204
:10082000FF920F931F93CF93DF93FC010190002061
:10083000E9F731977F01E81AF90A09F44DC0EC0194
:1008400000E010E00E94D50397FD49C0FE01E00FD3
:10085000F11F2081022E000C330B8217930789F1C0
:1008600001151105A9F14F019801A9014150510944
:10087000F40162914F01062E000C770B8617970743
:10088000E1F44115510531F16E01D801A41BB50BFE
:10089000AC0FBD1F60E070E0F601A1906F01BD904C
:1008A000AB1429F064177507A9F09A01DECF6F5FCA
:1008B0007F4F6417750780F3F5CF41155105A9F7F0
:1008C00007C098012F5F3F4FE216F30619F404C0EA
:1008D00020E030E08901B6CF20E030E002C02FEF09
:1008E0003FEF81E0232B09F080E0DF91CF911F9152
:1008F0000F91FF90EF90DF90CF90BF90AF909F90BF
:100900008F900895CF93DF93FC0124813581232BB1
:1009100071F0FB01DC01CD91DC9160817181CE0130
:100920000E94A319009719F08C1B9D0B02C08FEF3A
:100930009FEFDF91CF910895CF93DF9300D0CDB794
:10094000DEB769831A8241E050E0BE016F5F7F4FDE
:100950000E94AF010F900F90DF91CF9108959B01FE
:10096000AC01109216041092150410921404109207
:100970001304109212041092110460E079E08DE3E8
:1009800090E00E946E17F9012430310518F0C9017A
:10099000039702C081E090E09093180480931704BD
:1009A00090910704963108F076C0B9017695679565
:1009B0006431710518F06351710902C061E070E0A3
:1009C0007093120460931104369720F0B9016550BA
:1009D000710902C061E070E0709314046093130425
:1009E000B901660F771F260F371F36952795369565
:1009F00027952D30310518F02C50310902C021E027
:100A000030E030931604209315044091680098302C
:100A100058F031E09E3008F430E021E0822F01C030
:100A2000880F3A95EAF701C084E0842B8093680030
:100A3000983038F09E3040F0963148F020E030E0B9
:100A400008C02DE630E005C02BE630E002C02CE601
:100A500030E030930F0420930E04983030F481E09E
:100A600001C0880F9A95EAF70EC0292F30E09E301A
:100A700018F42850310902C02E50310981E001C01C
:100A8000880F2A95EAF780931004809117049091BB
:100A900018040197F1F78091150490911604892BA1
:100AA00049F1E0913603F091370383E0EB3FF8071B
:100AB00009F1309739F0A389B4899C918589809593
:100AC00089238C93809119048E7F8093190410924E
:100AD0003503109234038BEF93E0909337038093A8
:100AE0003603E0910E04F0910F0490818091100480
:100AF000892B80830895CF93DF9390E0FC01E85524
:100B0000FE4F2491FC01EC56FE4F8491882361F145
:100B100090E0880F991FFC01EE59FE4FC591D491CA
:100B2000FC01E657FE4FA591B491611109C09FB732
:100B3000F8948881209582238883EC912E230BC022
:100B4000623061F49FB7F8948881322F3095832307
:100B50008883EC912E2B2C939FBF06C08FB7F894FF
:100B6000E8812E2B28838FBFDF91CF9108958F923C
:100B70009F92AF92BF92CF92DF92EF92FF926B0162
:100B80007C010E9434014B015C01C114D104E104D9
:100B9000F104F1F00E943401DC01CB0188199909BC
:100BA000AA09BB09883E9340A105B10570F321E075
:100BB000C21AD108E108F10888EE880E83E0981E79
:100BC000A11CB11CC114D104E104F10419F7DDCF5B
:100BD000FF90EF90DF90CF90BF90AF909F908F905D
:100BE0000895CF92DF92EF92FF920F931F93CF93CE
:100BF000DF93CDB7DEB7C054D1400FB6F894DEBF57
:100C00000FBECDBF0E9459010091DE031091DF039A
:100C10002091E0033091E1036B017C01C01AD10AFD
:100C2000E20AF30A40EDC41647E0D406E104F104F9
:100C300018F48091E603CAC06093DE037093DF036B
:100C40008093E0039093E1031092D9031092D803AC
:100C50001092D7031092D6031092D50362E08091D0
:100C6000DA030E947B0561E070E080E090E00E9482
:100C7000B70561E08091DA030E947B0560E0809116
:100C8000DA030E9488038091DB038551823028F4C7
:100C90008BE291E10197F1F706C064E170E080E03A
:100CA00090E00E94B70562E08091DA030E947B0524
:100CB0008091E70390E08230910538F0880F991F0A
:100CC000880F991F05970197F1F7F89480E00E942B
:100CD00048036F3F7F4F8F4F9F4F21F41092E603E1
:100CE000789441C081E00E9448036F3F7F4F8F4F4F
:100CF0009F4FA1F38E010F5F1F4F6E012FEBC21AA2
:100D00002EEFD20A780180E00E944803F701608349
:100D100071838283938381E00E944803F701648397
:100D2000758386839783F8E0EF0EF11CEC14FD04C5
:100D300051F7789420E030E0F801C080D180E28063
:100D4000F3804481558166817781FFEFCF16DF06FE
:100D5000EF06FF0631F04F3F8FEF5807680778071F
:100D600021F41092E60380E031C0F90183E0F595AB
:100D7000E7958A95E1F7EB52FC4F8081880FC41606
:100D8000D506E606F70608F4816080832F5F3F4FA3
:100D9000085F1F4F2832310579F62091D90330E0E2
:100DA0004091D5038091D60390E0840F911D40912E
:100DB000D703840F911D4091D803840F911D99276B
:100DC0002817390771F681E08093E603C05CDE4F97
:100DD0000FB6F894DEBF0FBECDBFDF91CF911F914C
:100DE0000F91FF90EF90DF90CF9008952F923F9258
:100DF0004F925F926F927F928F929F92AF92BF922B
:100E0000CF92DF92EF92FF920F931F93CF93DF93D6
:100E100000D000D0CDB7DEB79C838B836B011A0165
:100E20003A832983270138016FEB71E00E94B202F7
:100E30000E9459014B015C010E945901DC01CB0168
:100E400088199909AA09BB0984159505A605B7054E
:100E500070F5D6018D919C91DC01ED91FC9100849F
:100E6000F185E02D09951816190694F4F601808194
:100E70009181DC01ED91FC910284F385E02D0995CF
:100E8000882339F3682F8B819C810E949C04E1CFD9
:100E9000B1018B819C810E948204019641F4698199
:100EA0007A818B819C810E948204019629F28B8138
:100EB0009C810F900F900F900F90DF91CF911F9119
:100EC0000F91FF90EF90DF90CF90BF90AF909F90E9
:100ED0008F907F906F905F904F903F902F900895EC
:100EE0008F929F92AF92BF92EF92FF920F931F93B8
:100EF000CF93DF93EC018B017A016FEB71E00E94DD
:100F0000B2020E9459014B015C010E945901DC01AF
:100F1000CB0188199909AA09BB09883E9340A1050C
:100F2000B10520F5D8018D919C91DC01ED91FC91EA
:100F30000084F185E02D0995181619068CF4F80146
:100F400080819181DC01ED91FC910284F385E02D9B
:100F50000995882339F3682FCE010E949C04E2CFC3
:100F6000B701CE010E948204019679F2CE01DF9191
:100F7000CF911F910F91FF90EF90BF90AF909F90F6
:100F80008F9008958F929F92AF92BF92CF92DF92EF
:100F9000EF92FF920F931F93CF93DF93CDB7DEB7FE
:100FA00062970FB6F894DEBF0FBECDBF4C015B0158
:100FB0007A0169016FEB71E0CE010D960E94B202D9
:100FC000B501CE0107960E94A902AE01495F5F4FAD
:100FD000B401CE0101960E947007BE016F5F7F4F82
:100FE000CE010D960E94DD01CE0101960E94A40261
:100FF000CE0107960E94A402B501CE010D960E9473
:101000008204019609F459C0B701CE010D960E94E1
:1010100082044C01990FAA08BB08B601CE010D96B7
:101020000E9482043FEF83169306A306B30609F4D9
:1010300044C08F3F4FEF940709F43FC06C01F701A4
:1010400084819581A5019401280F391F411D511DEF
:101050005901C216D30610F4560169016FEB71E015
:10106000CE0101960E94B202E988FA88AE14BF044C
:10107000C0F4CE14DF0408F47601ED85FE85EE0D94
:10108000FF1DD08010826D857E856A0D7B1DCE018F
:1010900001960E9476028D859E85FC01EE0DFF1D56
:1010A000D082BE016F5F7F4FC8010E94DD01CE017B
:1010B00001960E94A40211E006C06FEB71E0C80126
:1010C0000E94760210E0CE010D960E94A402812FAC
:1010D00062960FB6F894DEBF0FBECDBFDF91CF9101
:1010E0001F910F91FF90EF90DF90CF90BF90AF9046
:1010F0009F908F900895CF92DF92EF92FF920F937F
:101100001F93CF93DF93CDB7DEB7A4970FB6F894B4
:10111000DEBF0FBECDBF6C018B01BA01CE01499677
:101120000E94A902B801CE014F960E94A9026FEB5E
:1011300071E0CE0143960E94B202C6010E94550C96
:1011400061E572E0F601808191810E942403BE0175
:10115000615E7F4FF601808191810E94260360EDE0
:1011600071E0F601808191810E942403BE01675ED7
:101170007F4FF601808191810E94260362ED71E02C
:10118000F601808191810E9410036CE572E0CE012E
:1011900007960E94B2026BE671E0CE0101960E94B2
:1011A000B20210E1E12E17E2F12E00E010E09E0104
:1011B000295F3F4FAE014F5F5F4FB601CE010D96E5
:1011C0000E94F606BE01635F7F4FCE0143960E94E8
:1011D000DD01CE010D960E94A402CE0101960E946F
:1011E000A402CE0107960E94A4026BE671E0CE0134
:1011F00001960E94B202BE016F5F7F4FCE014396FF
:101200000E9482046C01CE0101960E94A402CE01CC
:1012100043960E94A402CE014F960E94A402CE01E2
:1012200049960E94A40281E0CD20C09409F480E098
:10123000A4960FB6F894DEBF0FBECDBFDF91CF915D
:101240001F910F91FF90EF90DF90CF900895EF9254
:10125000FF920F931F93CF93DF93CDB7DEB76297C3
:101260000FB6F894DEBF0FBECDBF7C018B016FEBD4
:1012700071E0CE010D960E94B202B801CE01079630
:101280000E94A902AE01495F5F4FB701CE010196EE
:101290000E947007BE016F5F7F4FCE010D960E94C6
:1012A000DD01CE0101960E94A402CE0107960E94A4
:1012B000A402B801CE010D960E9482048C01CE01D9
:1012C0000D960E94A40281E00F3F1F4F09F480E0B9
:1012D00062960FB6F894DEBF0FBECDBFDF91CF91FF
:1012E0001F910F91FF90EF900895CF92DF92EF92B0
:1012F000FF920F931F93CF93DF936C017A018B01C1
:10130000C0E0D0E0CE15DF0581F0D8016D918D01F0
:10131000D601ED91FC910190F081E02DC601099577
:10132000892B11F02196EECF7E01C701DF91CF917D
:101330001F910F91FF90EF90DF90CF900895FC01E7
:10134000538D448D252F30E0842F90E0821B930B2A
:10135000541710F0CF96089501970895FC01918DD0
:10136000828D981761F0828DDF01A80FB11D5D9607
:101370008C91928D9F5F9F73928F90E008958FEF75
:101380009FEF0895FC01918D828D981731F0828D29
:10139000E80FF11D858D90E008958FEF9FEF089580
:1013A000FC01918D228D892F90E0805C9F4F821BE4
:1013B00091098F739927089588E393E00E94D009DB
:1013C00021E0892B09F420E0822F0895FC01848D0F
:1013D000DF01A80FB11DA35ABF4F2C91848D90E05F
:1013E00001968F739927848FA689B7892C93A0893A
:1013F000B1898C91837080648C93938D848D9813C4
:1014000006C00288F389E02D80818F7D8083089556
:10141000EF92FF920F931F93CF93DF93EC0181E044
:10142000888F9B8D8C8D981305C0E889F989808100
:1014300085FD26C0F62E0B8D10E00F5F1F4F0F733A
:101440001127E02E8C8DE8120CC00FB607FCFACFE6
:10145000E889F989808185FFF5CFCE010E94E609F0
:10146000F1CF8B8DFE01E80FF11DE35AFF4FF082A3
:101470009FB7F8940B8FEA89FB89808180620AC04C
:101480009FB7F894EE89FF896083E889F9898081A4
:101490008370806480839FBF81E090E0DF91CF9173
:1014A0001F910F91FF90EF900895CF93DF93EC0180
:1014B000888D8823C9F0EA89FB89808185FD05C074
:1014C000A889B9898C9186FD0FC00FB607FCF5CFAE
:1014D000808185FFF2CFA889B9898C9185FFEDCFF6
:1014E000CE010E94E609E7CFDF91CF91089580E019
:1014F00090E0892B29F00E94DC0981110C940000F6
:10150000089520913603309137032817390771F475
:101510009091340380913503981741F0E0913403A2
:10152000F0E0E85CFB4F808190E008958FEF9FEF43
:10153000089508951F93CF93DF93DC015C968D91FE
:101540009C915D97009739F421E030E013963C932D
:101550002E9312973BC05196ED91FC915297509665
:101560002C915097322F30951FB75E964C915E9715
:10157000742F727041FD6095F8944081772311F0CB
:10158000422B01C043234083EC012197F1F748E04F
:10159000508160FF02C0522B01C053235083EC01E5
:1015A0002197F1F76695415099F78081772319F0DB
:1015B0008323808302C0282B20831FBF5C968D91DC
:1015C0009C915D970197F1F781E090E0DF91CF91D9
:1015D0001F9108952091360330913703281739075A
:1015E00071F4809135032091340390E0805C9F4F2B
:1015F000821B910960E470E00E943817089580E032
:1016000090E0089520913603309137032817390769
:10161000B9F49091340380913503981789F0E091E3
:101620003403F0E0E85CFB4F80812091340330E02C
:101630002F5F3F4F2F7333272093340390E008959B
:101640008FEF9FEF089580E090E008950F931F9330
:10165000FC010285138524853585401B510B620BE7
:10166000730B77FD02C0808901C080E01F910F914C
:101670000895FC0142835383648375838681978137
:10168000A085B185480F591F6A1F7B1F428753876A
:101690006487758708950F931F93CF93DF93EC01B1
:1016A000EE85FF85309709F009950E9459016E83F8
:1016B0007F83888799870A811B812C813D81DC018A
:1016C000CB01800F911FA21FB31F8A879B87AC8716
:1016D000BD87DF91CF911F910F910895611571051D
:1016E00079F0FB0101900020E9F73197AF01461B2B
:1016F000570BDC01ED91FC910280F381E02D099400
:1017000080E090E008951F920F920FB60F9211247F
:101710002F933F934F935F936F937F938F939F93F9
:10172000AF93BF93EF93FF9388E393E00E94E609A2
:10173000FF91EF91BF91AF919F918F917F916F91A9
:101740005F914F913F912F910F900FBE0F901F907F
:1017500018951F920F920FB60F9211242F938F930B
:101760009F93EF93FF93E0914803F09149038081A9
:10177000E0914E03F0914F0382FD12C09081809161
:1017800051038F5F8F7320915203821751F0E091C4
:101790005103F0E0E85CFC4F958F8093510301C04A
:1017A0008081FF91EF919F918F912F910F900FBEAC
:1017B0000F901F9018951F920F920FB60F92112441
:1017C0002F933F934F935F936F937F938F939F9349
:1017D000AF93BF93EF93FF93E0913603F0913703FC
:1017E000309709F451C0968DA685B785858591FF00
:1017F00004C09C91892329F447C09C91892309F056
:1018000043C0A389B4899C918589809589238C9351
:10181000868997890197F1F7608D718DA685B785C7
:10182000558538E020E0CB010197F1F7822F90E059
:1018300095958795282F4C91452309F020683150C4
:1018400091F7868D81FD20958091350390E001967A
:101850008F73992730913403381749F0A0913503DD
:10186000B0E0A85CBB4F2C938093350303C0868DFA
:101870008160868F828D938D0197F1F7A389B4895A
:101880009C918589892B8C93FF91EF91BF91AF91AA
:101890009F918F917F916F915F914F913F912F9188
:1018A0000F900FBE0F901F901895CF93DF93EC0110
:1018B00088819981DC01ED91FC910084F185E02D16
:1018C00009951816190654F488819981DC01ED9167
:1018D000FC910284F385E02D0995EACFDF91CF9149
:1018E0000895CF92DF92EF92FF920F931F93CF93C1
:1018F000DF93CDB7DEB7E3970FB6F894DEBF0FBE28
:10190000CDBF61E672E088E393E00E94100380910E
:101910002A03882309F430C160EC71E0CE010196FE
:101920007C010E94B20266E274E0C7010E9442029A
:1019300064ED71E00E94290260E274E00E944202BC
:101940006FEB71E00E942902BC018BEF93E00E94D3
:101950003403C7010E94A4028BE691E00E940904AF
:10196000882331F067ED71E088E393E00E94100373
:101970006091260370912703809128039091290399
:101980001BA21AA21DA21CA21FA21EA2870122E056
:1019900044E00E94E112BC01CE0182960E947602D0
:1019A00066E872E0C7010E94B202BE016E5D7F4F21
:1019B000C7010E94420261E972E00E942902BC0153
:1019C000CE018E960E94A902C7010E94A402CE01F8
:1019D00082960E94A40264E972E0CE0188960E9479
:1019E000B202CAA8DBA8BE01685D7F4FCE01829615
:1019F0000E94A9026AE174E0CE0182960E9442022E
:101A00006AE972E00E94290266EA72E00E942902F5
:101A100066E274E00E9442026DEB71E00E942902CE
:101A20006DEA72E00E94290267EB72E00E942902CF
:101A300069EB72E00E9429026DEB72E00E942902BC
:101A40008C014AE0B701C6010E943D13F7010190E5
:101A50000020E9F73197AF014E195F09B701C801BE
:101A60000E94AF01811103C0C8010E9417026DEBF3
:101A700071E0C8010E9429026EEC72E00E94290206
:101A80006DEB71E00E942902BE01625D7F4F0E94F2
:101A90004202BC01CE0188960E948D02CE01829640
:101AA0000E94A4026FEE72E0CE0182960E94B20202
:101AB000BE016E5D7F4F8BEF93E00E9426034CA525
:101AC0005DA560E070E02AE08BEF93E00E94C70222
:101AD0006DEB71E08BEF93E00E946E0B8BEF92E069
:101AE0000E9409048823E1F16DEF72E088E393E03E
:101AF0000E941003BE01685D7F4F8BEF93E00E9450
:101B0000260388E093E00E940904882349F160E1FC
:101B100073E088E393E00E9410038BEF93E00E9450
:101B2000EA0A892BB9F06FEB71E0C7010E94B2029B
:101B30000E94D50397FD05C0682FC7010E949C0431
:101B4000F7CFB70188E393E00E943403C7010E94F6
:101B5000A402E3CF6AE173E08BEF93E00E941003ED
:101B6000CE0182960E94A402CE0188960E94A40211
:101B7000CE018E960E94A402E3960FB6F894DEBFC3
:101B80000FBECDBFDF91CF911F910F91FF90EF90CE
:101B9000DF90CF900895CF93DF93CDB7DEB76A97EC
:101BA0000FB6F894DEBF0FBECDBF789484B58260C7
:101BB00084BD84B5816084BD85B5826085BD85B5F1
:101BC000816085BD80916E00816080936E0010926F
:101BD00081008091810082608093810080918100EA
:101BE000816080938100809180008160809380007B
:101BF0008091B10084608093B1008091B0008160D9
:101C00008093B00080917A00846080937A00809104
:101C10007A00826080937A0080917A00816080935C
:101C20007A0080917A00806880937A001092C100D7
:101C3000E0914803F091490382E08083E0914403FE
:101C4000F09145031082E0914603F09147038FEC39
:101C5000808310925003E0914C03F0914D0386E095
:101C60008083E0914A03F0914B03808180618083FF
:101C7000E0914A03F0914B03808188608083E0917A
:101C80004A03F0914B03808180688083E0914A038E
:101C9000F0914B0380818F7D808360E072EC81E066
:101CA00090E00E94AF0462E08091DA030E947B051D
:101CB0000E945901DC01CB01805D9740A109B10967
:101CC0008093DE039093DF03A093E003B093E103DE
:101CD00087E38093E70364E371E088E393E00E9485
:101CE000240361E471E08BEF93E00E9424038BEF07
:101CF00093E09A8F898F60E875E280E090E00E941F
:101D0000AF04CE0149960E94550C6FEB71E0CE01F5
:101D100043960E94B202CE0149960E94550C6CE592
:101D200071E0898D9A8D0E94100367E671E0CE0103
:101D30000D960E94B2026EE671E0CE0107960E94F7
:101D4000B2026BE671E0CE0101960E94B2028E01F2
:101D50000D5E1F4F9E01235F3F4FAE01495F5F4FF6
:101D6000BE016F5F7F4FCE0149960E94C207182FB8
:101D7000CE0101960E94A402CE0107960E94A40201
:101D8000CE010D960E94A402112361F08B899C89DB
:101D9000009719F00E94011301C060E0F62EDD24C7
:101DA000D39401C0D12CCE0143960E94A402DD2021
:101DB00009F4E7C021E0F21609F4E3C06FEB71E02B
:101DC000CE0143960E94B202CE0149960E94550C64
:101DD00067E771E0898D9A8D0E942403E98CFA8C63
:101DE0002AE041E050E060E070E0C7010E94C702D5
:101DF0006DEB71E0C7010E946E0B62E871E0CE01ED
:101E000007960E94B2026BE671E0CE0101960E9435
:101E1000B20218EEE12E13E0F12E00E010E09E0178
:101E2000295F3F4FAE014F5F5F4FBE01675E7F4F3F
:101E3000CE010D960E94F606BE01635F7F4FCE0174
:101E400043960E94DD01CE010D960E94A402CE01B0
:101E500001960E94A402CE0107960E94A4026BE69E
:101E600071E0CE0107960E94B202BE01695F7F4F0A
:101E7000CE0143960E9482040196B1F462E871E0BB
:101E8000CE0101960E94B202BE016F5F7F4FCE016C
:101E900043960E948204DD24D394019609F4D12C48
:101EA000CE0101960E94A402CE0107960E94A402D0
:101EB000CE0143960E94A402DD2009F462C0CE0147
:101EC00049960E94550C6CE871E0898D9A8D0E94AC
:101ED00010036BE671E0CE0101960E94B202BE01D2
:101EE0006F5F7F4FCE0149960E942709182FCE01C0
:101EF00001960E94A402112309F443C060ED77E02B
:101F000080E090E00E94B7050E9459016B017C01BE
:101F10000E945901DC01CB018C199D09AE09BF0952
:101F2000883B9B40A105B10560F5CE0149960E9412
:101F3000550C63E971E0898D9A8D0E9410036BE660
:101F400071E0CE0101960E94B202BE016F5F7F4F29
:101F5000CE0149960E942709182FCE0101960E94B2
:101F6000A402112339F06CED75E080E090E00E944E
:101F7000B70507C064E670E080E090E00E94B70516
:101F8000C7CF6CE274E0CE0101960E94A90262E321
:101F900074E0CE0107960E94A902AE014F5F5F4F29
:101FA000BE01695F7F4FCE0149960E947B08182FC2
:101FB000CE0107960E94A402CE0101960E94A402BF
:101FC000112309F40AC166E971E088E393E00E94F5
:101FD00024036EEA71E088E393E00E9424036FEB30
:101FE00071E0CE0143960E94B202CE0149960E9452
:101FF000550C63EB71E0898D9A8D0E94100367E6A2
:1020000071E0CE010D960E94B2026CEB71E0CE0140
:1020100007960E94B2026BE671E0CE0101960E9423
:10202000B2028E010D5E1F4F9E01235F3F4FAE0136
:10203000495F5F4FBE016F5F7F4FCE0149960E949F
:10204000C207CE0101960E94A402CE0107960E940B
:10205000A402CE010D960E94A4026B897C8988E3BC
:1020600093E00E941003C8010E94A4026EEB71E08D
:1020700088E393E00E9410030E94F1050E94F1059D
:10208000882309F46DC08091DB038C3009F446C0CD
:1020900018F48B30D1F064C08551823008F060C0F4
:1020A0001091D703612F6F7770E0762F66278091AC
:1020B000D803682B80E090E00E9499152DEC3CEC51
:1020C0004CEC5DE30E94D61547C06091D70370E0E9
:1020D00080E090E00E9499156B017C011091D8037B
:1020E00017FF0AC09B01AC0160E070E080E89FEB45
:1020F0000E94CB166B017C01612F6F7070E080E055
:1021000090E00E949B152DEC3CEC4CEC5DE30E94B2
:10211000D615A70196010E94CC1626C01091D703B0
:102120006091D8036F7070E080E090E00E949B1592
:102130002DEC3CEC4CEC5DE30E94D6156B017C0170
:10214000612F70E080E090E00E9499159B01AC0146
:10215000C701B6010E94CC1617FF06C0905804C0F4
:1021600060E070E080EC9FE76093260370932703A4
:10217000809328039093290360EC71E0CE010196CF
:102180000E94B20266E274E0CE0101960E94420211
:1021900064ED71E00E94290260E274E00E94420254
:1021A0006FEB71E00E942902BC018BEF93E00E946B
:1021B0003403CE0101960E94A4028BE691E00E94B6
:1021C00009048823B1F081E080932A0367ED71E070
:1021D00088E393E00E9410030CC06DEE71E088E389
:1021E00093E00E94100360E375E780E090E00E94B6
:1021F000B7056FEB71E0CE0143960E94B202CE01AB
:1022000049960E94550C65E072E0898D9A8D0E9476
:102210002403E98CFA8C2AE040E050E0BA01C701BF
:102220000E94C7026DEB71E0C7010E946E0B60E176
:1022300072E0CE0107960E94B2026BE671E0CE0119
:1022400001960E94B20218EEE12E13E0F12E00E09A
:1022500010E09E01295F3F4FAE014F5F5F4FBE010F
:10226000675E7F4FCE010D960E94F606BE01635F4A
:102270007F4FCE0143960E94DD01CE010D960E9454
:10228000A402CE0101960E94A402CE0107960E94EC
:10229000A4026BE671E0CE0101960E94B202CE016B
:1022A00001960E94A402CE0143960E94A40281E7F7
:1022B0009CE09093F7038093F60388E893E1A0E015
:1022C000B0E08093EA039093EB03A093EC03B09308
:1022D000ED038091EE039091EF03A091F003B09194
:1022E000F10388579C4EAF4FBF4F8093F2039093FA
:1022F000F303A093F403B093F5030E945901AB01DB
:10230000BC0188EE93E00E94260B882321F088EE22
:1023100093E00E944B0B0E94770AEFCFCF92DF929F
:10232000EF92FF9210923B0310923A0398EEC92E5F
:1023300093E0D92EE12CF12CC0923C03D0923D03C6
:10234000E0923E03F0923F038AE091E090933903DC
:102350008093380385EC90E0909345038093440389
:1023600084EC90E0909347038093460380EC90E0E8
:10237000909349038093480381EC90E090934B0342
:1023800080934A0382EC90E090934D0380934C033A
:1023900086EC90E090934F0380934E03109251038C
:1023A00010925203109253031092540360E272E0B1
:1023B00082E394E00E94B2026CE272E08CE294E06C
:1023C0000E94B20268E372E086E294E00E94B202E8
:1023D00065E472E080E294E00E94B2026AE472E096
:1023E0008AE194E00E94B2021092FE031092FD0373
:1023F000C092FF03D0920004E0920104F092020424
:1024000086E291E09093FC038093FB031092120408
:1024100010921104109214041092130410921604D6
:102420001092150410921804109217046091190468
:102430006E7F6D7F609319046695617081E06827F7
:1024400082E00E94880361E082E00E947B05EAEA64
:10245000F1E0E491E0930B04E6E9F1E0E491F0E0CF
:10246000EE0FFF1FE657FE4F8591949190930D0458
:1024700080930C0460E084E00E947B058091190445
:1024800081FD04C061E084E00E94880384E08093C1
:102490000704ECEAF1E0E491E0930804E8E9F1E0F4
:1024A000E491F0E0EE0FFF1FE058FE4F859194910C
:1024B00090930A04809309048CE191E09093E903DE
:1024C0008093E80381E08093F8031092F703109261
:1024D000F6031092F2031092F3031092F403109299
:1024E000F5030E9459016093EE037093EF0380930C
:1024F000F0039093F10328EE33E03093FA03209336
:10250000F9031092EA031092EB031092EC0310927D
:10251000ED036093F2037093F3038093F4039093BD
:10252000F5038EE08093DA038BE08093DB03E6EB28
:10253000F1E0E491E093DC03E2EAF1E0E491E0937E
:10254000DD0380E89EE3A0E0B0E08093E203909397
:10255000E303A093E403B093E503FF90EF90DF90D3
:10256000CF90089586E291E09093FC038093FB0363
:1025700080913603909137038B5F934071F4E09123
:102580000E04F0910F0490818091100480958923AE
:10259000808310923703109236038AE194E00E9400
:1025A000A40280E294E00E94A40286E294E00E94E9
:1025B000A4028CE294E00E94A40282E394E00C94D2
:1025C000A402EF920F931F93CF93DF93E80147FD8F
:1025D00002C034E001C034E1042E000C550B57FF5B
:1025E00003C0519541955109E32E022F242FAE01CE
:1025F0000E945713CE01DF91CF911F910F91EF9061
:1026000008951F93FC0199278827BC01E894119134
:102610001032E9F3193010F01E30C8F31B3251F0BC
:102620001D3249F4689406C00E942813610F711D81
:10263000811D911D119110531A30B0F33EF4909505
:102640008095709561957F4F8F4F9F4F1F91089593
:10265000592F482F372F262F660F771F881F991F56
:10266000660F771F881F991F620F731F841F951FA6
:10267000660F771F881F991F0895BB27FB015527F9
:10268000AA27880F991FAA1FA41710F0A41B8395CF
:102690005051B9F7A05DAA3308F0A95DA193009746
:1026A00079F7B111B1931192CB010C948915A9E07E
:1026B000B0E0EDE5F3E10C949A166A01122FB02E0A
:1026C0002BE3201720F0FF24F394F00E02C02CE33C
:1026D000F22E0F2D27E0AE014F5F5F4F0E94B11425
:1026E000BC014981842F8970813031F0E1FC06C042
:1026F000E0FE06C090E205C09DE203C09BE201C07F
:1027000090E05E2D507143FF3CC0911102C083E008
:1027100001C084E0811718F4212F281B01C020E09C
:1027200051110BC0F601822F30E2882319F031934A
:102730008150FBCFC20ED11C20E0992329F0D60195
:102740009C93F60131966F01C6010396E2FE0AC022
:102750003EE4D6013C9341E411964C9311971296B6
:102760003C9306C03EE6F601308341E64183328366
:10277000FC01322F40E2332309F442C0419331502F
:10278000FACF42FF44C0911102C083E001C084E04F
:10279000811718F4212F281B01C020E051110BC014
:1027A000F601822F30E2882319F031938150FBCF5C
:1027B000C20ED11C20E0992329F0D6019C93F6018A
:1027C00031966F01C6010396E2FE0BC039E4D601D3
:1027D0003C933EE411963C93119736E412963C9359
:1027E00007C039E6F60130833EE6318336E63283B0
:1027F000FC01322F40E2332319F041933150FBCFDB
:10280000FC01E20FF11D10828EEF9FEFA6C021E0C8
:1028100030E0911102C020E030E0161617061CF4DB
:10282000FB01319602C0E1E0F0E02E0F3F1FBB201C
:1028300021F0EB2DF0E0319602C0E0E0F0E02E0F49
:102840003F1FE12FF0E02E173F071CF4121B212F32
:1028500001C020E08E2D887159F4F601822F30E2FC
:10286000882319F031938150FBCFC20ED11C20E098
:10287000992329F0D6019C93F60131966F015111ED
:102880000BC0F601822F90E3882319F091938150B9
:10289000FBCFC20ED11C20E00F2D060F9A81342FE2
:1028A000307144FF03C0913309F40150101624F431
:1028B000093018F008E001C001E0AB0177FF02C069
:1028C00040E050E0FB01E41BF50BA1E0B0E0AC0FF1
:1028D000BD1FEA0FFB1F8EE2A82E4B01801A910844
:1028E0000B2D10E01195019511094F3FBFEF5B07CC
:1028F00021F4D601AC9211966D01641775072CF086
:102900008416950614F4818101C080E34150510979
:102910003196D60111967D014017510724F0D6015A
:102920008C936701E2CF6417750739F4963320F46E
:10293000953319F4311101C081E3F6018083F70169
:10294000822F90E2882319F091938150FBCFF701F9
:10295000E20FF11D108280E090E02996ECE00C94EB
:10296000B616283008F027E03327DA01990F311D19
:1029700087FD916000966105710539F432602E5F24
:102980003D9330E32A95E1F708959F3F30F080387A
:102990007105610509F03C5F3C5F3D93913008F0A3
:1029A0008068911DDF93CF931F930F93FF92EF9257
:1029B000192F987F9695E92F96959695E90FFF2701
:1029C000EE53FF4F99273327EE24FF24A701E70199
:1029D00005900894079428F4360FE71EF81E491F47
:1029E000511D660F771F881F991F0694A1F7059048
:1029F000079428F4E70EF81E491F561FC11D770FD4
:102A0000881F991F661F0694A1F70590079428F464
:102A1000F80E491F561FC71FD11D880F991F661F2B
:102A2000771F0694A1F70590079420F4490F561FCD
:102A3000C71FD81F990F661F771F881F0694A9F715
:102A400084911095177041F0D695C7955795479585
:102A5000F794E7941A95C1F7E8E6F0E068941590CA
:102A6000159135916591959105907FE27395E118E7
:102A7000F10A430B560BC90BD009C0F7E10CF11E4C
:102A8000431F561FC91FD01D7EF4703311F48A9561
:102A9000E6CFE894015030F0080F0AF4002702173F
:102AA00008F4202F2395022F7A3328F079E37D93C1
:102AB0002A95E9F710C07D932A9589F60694979593
:102AC0006795379517951794E118F10A430B560B44
:102AD000C90BD00998F023957E9173957A3308F04D
:102AE00070E37C932013B8F77E9170617D9330F092
:102AF000839571E37D9370E32A95E1F71124EF90BC
:102B0000FF900F911F91CF91DF91992787FD9095AD
:102B10000895DC01FC01672F71917723E1F732976B
:102B200004C07C916D9370836291AE17BF07C8F3A8
:102B30000895E89409C097FB3EF4909580957095B0
:102B400061957F4F8F4F9F4F9923A9F0F92F96E9F9
:102B5000BB279395F695879577956795B795F1116E
:102B6000F8CFFAF4BB0F11F460FF1BC06F5F7F4F0B
:102B70008F4F9F4F16C0882311F096E911C077231D
:102B800021F09EE8872F762F05C0662371F096E826
:102B9000862F70E060E02AF09A95660F771F881FF5
:102BA000DAF7880F9695879597F908950E94E915A9
:102BB0000C945A160E944C1638F00E94531620F0BE
:102BC000952311F00C9443160C94491611240C947F
:102BD0008E160E946B1670F3959FC1F3950F50E00F
:102BE000551F629FF001729FBB27F00DB11D639FBF
:102BF000AA27F00DB11DAA1F649F6627B00DA11D65
:102C0000661F829F2227B00DA11D621F739FB00D0A
:102C1000A11D621F839FA00D611D221F749F33277A
:102C2000A00D611D231F849F600D211D822F762F13
:102C30006A2F11249F5750409AF0F1F088234AF0F0
:102C4000EE0FFF1FBB1F661F771F881F915050405C
:102C5000A9F79E3F510580F00C9443160C948E16F4
:102C60005F3FE4F3983ED4F3869577956795B795E3
:102C7000F795E7959F5FC1F7FE2B880F911D9695FD
:102C8000879597F9089597F99F6780E870E060E06D
:102C900008959FEF80EC089500240A9416161706F5
:102CA00018060906089500240A941216130614063D
:102CB00005060895092E0394000C11F4882352F0A0
:102CC000BB0F40F4BF2B11F460FF04C06F5F7F4F58
:102CD0008F4F9F4F089557FD9058440F551F59F03F
:102CE0005F3F71F04795880F97FB991F61F09F3FF9
:102CF00079F087950895121613061406551FF2CF22
:102D00004695F1DF08C0161617061806991FF1CF71
:102D100086957105610508940895E894BB27662798
:102D20007727CB0197F908952F923F924F925F92A8
:102D30006F927F928F929F92AF92BF92CF92DF92CB
:102D4000EF92FF920F931F93CF93DF93CDB7DEB730
:102D5000CA1BDB0B0FB6F894DEBF0FBECDBF0994C4
:102D60002A88398848885F846E847D848C849B841B
:102D7000AA84B984C884DF80EE80FD800C811B8129
:102D8000AA81B981CE0FD11D0FB6F894DEBF0FBE58
:102D9000CDBFED0108955058BB27AA270E94E31626
:102DA0000C945A160E944C1638F00E94531620F0CC
:102DB00039F49F3F19F426F40C9449160EF4E0956B
:102DC000E7FB0C944316E92F0E946B1658F3BA17D1
:102DD000620773078407950720F079F4A6F50C9431
:102DE0008D160EF4E0950B2EBA2FA02D0B01B90114
:102DF00090010C01CA01A0011124FF27591B99F071
:102E0000593F50F4503E68F11A16F040A22F232F7C
:102E1000342F4427585FF3CF469537952795A795CC
:102E2000F0405395C9F77EF41F16BA0B620B730B73
:102E3000840BBAF09150A1F0FF0FBB1F661F771FE4
:102E4000881FC2F70EC0BA0F621F731F841F48F499
:102E5000879577956795B795F7959E3F08F0B0CF22
:102E60009395880F08F09927EE0F97958795089509
:102E700097FB072E16F4009407D077FD09D00E9427
:102E80008D1707FC05D03EF4909581959F4F0895CE
:102E9000709561957F4F0895A1E21A2EAA1BBB1B66
:102EA000FD010DC0AA1FBB1FEE1FFF1FA217B30716
:102EB000E407F50720F0A21BB30BE40BF50B661F2C
:102EC000771F881F991F1A9469F7609570958095F0
:102ED00090959B01AC01BD01CF010895052E97FB94
:102EE0001EF400940E94851757FD07D00E944C17CE
:102EF00007FC03D04EF40C948517509540953095FF
:102F000021953F4F4F4F5F4F089590958095709555
:102F100061957F4F8F4F9F4F0895AA1BBB1B51E1B7
:102F200007C0AA1FBB1FA617B70710F0A61BB70B39
:102F3000881F991F5A95A9F780959095BC01CD01DE
:102F40000895EE0FFF1F0590F491E02D09940F9363
:102F50001F93CF93DF938230910510F482E090E0CD
:102F6000E0917A04F0917B0420E030E0A0E0B0E052
:102F7000309719F140815181028113814817590717
:102F8000C8F08417950769F4109731F012960C93E6
:102F9000129713961C9327C000937A0410937B0416
:102FA00022C02115310519F04217530718F49A0170
:102FB000BD01EF01DF01F801DBCF21153105F9F08B
:102FC000281B390B2430310580F48A819B816115DF
:102FD000710521F0FB019383828304C090937B04ED
:102FE00080937A04FE01329644C0FE01E20FF31F83
:102FF0008193919322503109398328833AC02091DB
:10300000780430917904232B41F42091020130910E
:1030100003013093790420937804209100013091CA
:1030200001012115310541F42DB73EB7409104014E
:1030300050910501241B350BE0917804F09179043F
:10304000E217F307A0F42E1B3F0B2817390778F07F
:10305000AC014E5F5F4F2417350748F04E0F5F1FDE
:1030600050937904409378048193919302C0E0E0F7
:10307000F0E0CF01DF91CF911F910F910895CF9391
:10308000DF93009709F481C0FC013297138212820A
:10309000A0917A04B0917B04109781F42081318152
:1030A000820F931F209178043091790428173907F3
:1030B00051F5F0937904E093780467C0ED0120E0C6
:1030C00030E0CE17DF0740F44A815B819E01411555
:1030D0005105F1F0EA01F5CFD383C28340815181DC
:1030E000840F951FC817D90759F488819981840FD7
:1030F000951F0296918380838A819B81938382832B
:103100002115310529F4F0937B04E0937A043DC046
:10311000E901FB83EA8349915991C40FD51FEC174C
:10312000FD0761F480819181840F951F0296E9016A
:1031300099838883828193819B838A83E0E0F0E096
:1031400012968D919C911397009719F0FD01DC0167
:10315000F7CF8D919C9111979D012E5F3F4F820F6C
:10316000931F20917804309179042817390769F466
:10317000309729F410927B0410927A0402C01382D3
:103180001282B0937904A0937804DF91CF910895CF
:10319000A0E0B0E0EEECF8E10C949816EC0100979A
:1031A00021F4CB010E94A717B4C0FC01E60FF71F62
:1031B0009C0122503109E217F30708F4A8C0D90195
:1031C0000D911C91119706171707B0F005301105E6
:1031D00008F49BC0C80104978617970708F495C0A8
:1031E00002501109061B170B019311936D937C93E9
:1031F000CF010E943F1889C05B01A01AB10A4C019F
:10320000800E911EA0917A04B0917B04612C712CE8
:10321000E12CF12C109709F446C08D919C911197E7
:10322000A815B905B1F56C0142E0C40ED11CCA1451
:10323000DB0478F14C018A189B08640142E0C40E5B
:10324000D11C1296BC9012971396AC91B5E0CB1698
:10325000D10440F0B282A38391828082D9016D9320
:103260007C9309C00E5F1F4F800F911FF90191835E
:103270008083EB2DFA2FE114F10431F0D70113967E
:10328000FC93EE93129741C0F0937B04E0937A0491
:103290003CC06816790608F43C017D0112960D9039
:1032A000BC91A02DB7CF80917804909179048816B5
:1032B0009906E1F466167706C8F4809100019091B2
:1032C0000101009741F48DB79EB7409104015091E0
:1032D0000501841B950BE817F907C8F4F0937904EE
:1032E000E0937804F901718360830FC0CB010E94E1
:1032F000A7177C01009759F0A801BE010E949319FD
:10330000CE010E943F18C70104C0CE0102C080E078
:1033100090E0CDB7DEB7EEE00C94B41681E090E01B
:10332000F8940C94BD19FB01DC0102C001900D92D0
:1033300041505040D8F70895FB01DC0101900D92F7
:103340000020E1F70895FB0151915523A9F0BF0139
:10335000DC014D9145174111E1F759F4CD01019080
:10336000002049F04D9140154111C9F3FB01411175
:10337000EFCF81E090E00197089510E0CFEDD0E02D
:1033800004C0FE010E94A1172196C03ED107C9F7D3
:04339000F894FFCFDF
:1033940000007C04800000000000080A75099F09F1
:1033A400550AD009AE09C20900000000390B260BEA
:1033B4004B0B000000009A0A7509230B990AEA0ACC
:1033C400020B810A496E696369616E646F200D0A9C
:1033D4000041542B554152545F4355523D393630C8
:1033E400302C382C312C302C300D0A0041542B4316
:1033F400574D4F44453F000D0A0D0A4F4B002B43D8
:10340400574D4F44453A0041542B43574D4F444583
:103414003D006E6F206368616E67650041542B52F6
:10342400535400415400436F6E65637461646F20AC
:10343400636F6D207375636573736F0D0A00495074
:103444003A200041542B4349465352000D0D0A00C3
:1034540041542B43495053544152543D22544350F8
:10346400222C2200222C00436F6E65637461646F0A
:10347400206E6F207365727669646F720046616CAA
:103484006861206E6120436F6E6578616F205769B3
:1034940066690D0A0041542B4349504D55583D006F
:1034A4004C696E6B206973206275696C6465640095
:1034B400576966692D496E646169610023696E64A8
:1034C40061696132313023003139322E3136382E80
:1034D400322E32350033333333002F626F78657305
:1034E4000041542B43574A41503D22004641494C28
:1034F40000496E696369616E646F20656E76696FF9
:10350400206465206461646F7320616F2073657249
:103514007669646F72007B227469746C65223A2246
:1035240000227D00504F5354200020485454502F03
:10353400312E310D0A00486F73743A2000416363E1
:103544006570743A202A002F002A0D0A00436F6E1A
:1035540074656E742D4C656E6774683A2000436F11
:103564006E74656E742D547970653A206170706C58
:1035740069636174696F6E2F6A736F6E0D0A00411F
:10358400542B43495053454E443D003E00456E760E
:1035940069616E646F2E2E0053454E44204F4B00DC
:1035A400456E766961646F20210041542B43495074
:0635B400434C4F5345009B
:00000001FF
